{
  "abi": [
    {
      "inputs": [],
      "stateMutability": "nonpayable",
      "type": "constructor"
    },
    {
      "anonymous": false,
      "inputs": [
        {
          "indexed": false,
          "internalType": "uint256",
          "name": "documentId",
          "type": "uint256"
        },
        {
          "indexed": false,
          "internalType": "address",
          "name": "user",
          "type": "address"
        }
      ],
      "name": "DocumentAccessGranted",
      "type": "event"
    },
    {
      "anonymous": false,
      "inputs": [
        {
          "indexed": false,
          "internalType": "uint256",
          "name": "documentId",
          "type": "uint256"
        },
        {
          "indexed": false,
          "internalType": "string",
          "name": "documentHash",
          "type": "string"
        }
      ],
      "name": "DocumentAdded",
      "type": "event"
    },
    {
      "inputs": [
        {
          "internalType": "string",
          "name": "_documentHash",
          "type": "string"
        },
        {
          "internalType": "string",
          "name": "_documentLink",
          "type": "string"
        }
      ],
      "name": "addDocument",
      "outputs": [],
      "stateMutability": "nonpayable",
      "type": "function"
    },
    {
      "inputs": [],
      "name": "documentCount",
      "outputs": [
        {
          "internalType": "uint256",
          "name": "",
          "type": "uint256"
        }
      ],
      "stateMutability": "view",
      "type": "function"
    },
    {
      "inputs": [
        {
          "internalType": "uint256",
          "name": "",
          "type": "uint256"
        }
      ],
      "name": "documents",
      "outputs": [
        {
          "internalType": "string",
          "name": "documentHash",
          "type": "string"
        },
        {
          "internalType": "address",
          "name": "owner",
          "type": "address"
        },
        {
          "internalType": "string",
          "name": "ipfsLink",
          "type": "string"
        }
      ],
      "stateMutability": "view",
      "type": "function"
    },
    {
      "inputs": [
        {
          "internalType": "uint256",
          "name": "_documentId",
          "type": "uint256"
        },
        {
          "internalType": "address",
          "name": "_user",
          "type": "address"
        }
      ],
      "name": "grantAccess",
      "outputs": [],
      "stateMutability": "nonpayable",
      "type": "function"
    },
    {
      "inputs": [],
      "name": "owner",
      "outputs": [
        {
          "internalType": "address",
          "name": "",
          "type": "address"
        }
      ],
      "stateMutability": "view",
      "type": "function"
    },
    {
      "inputs": [
        {
          "internalType": "uint256",
          "name": "_documentId",
          "type": "uint256"
        },
        {
          "internalType": "address",
          "name": "_user",
          "type": "address"
        }
      ],
      "name": "revokeAccess",
      "outputs": [],
      "stateMutability": "nonpayable",
      "type": "function"
    },
    {
      "inputs": [
        {
          "internalType": "uint256",
          "name": "_documentId",
          "type": "uint256"
        },
        {
          "internalType": "string",
          "name": "_documentHash",
          "type": "string"
        }
      ],
      "name": "verifyDocument",
      "outputs": [
        {
          "internalType": "bool",
          "name": "",
          "type": "bool"
        }
      ],
      "stateMutability": "view",
      "type": "function"
    },
    {
      "inputs": [
        {
          "internalType": "uint256",
          "name": "_documentId",
          "type": "uint256"
        }
      ],
      "name": "viewDocument",
      "outputs": [
        {
          "internalType": "string",
          "name": "",
          "type": "string"
        }
      ],
      "stateMutability": "view",
      "type": "function"
    }
  ],
  "bytecode": {
    "object": "0x608060405234801561001057600080fd5b50600080546001600160a01b03191633179055610c30806100326000396000f3fe608060405234801561001057600080fd5b50600436106100885760003560e01c8063a5b16b2e1161005b578063a5b16b2e14610109578063c2ed2b0514610120578063d40a2c5d14610142578063d9a5ec1b1461016557600080fd5b806318939b5e1461008d5780634d2b1978146100b657806365dd152c146100cb5780638da5cb5b146100de575b600080fd5b6100a061009b36600461074f565b610178565b6040516100ad91906107b8565b60405180910390f35b6100c96100c4366004610875565b6102bc565b005b6100c96100d93660046108d9565b610346565b6000546100f1906001600160a01b031681565b6040516001600160a01b0390911681526020016100ad565b61011260025481565b6040519081526020016100ad565b61013361012e36600461074f565b61046f565b6040516100ad93929190610915565b610155610150366004610953565b6105b0565b60405190151581526020016100ad565b6100c96101733660046108d9565b610618565b600081815260016020819052604090912090810154606091906001600160a01b03163314806101b8575033600090815260038201602052604090205460ff165b6102275760405162461bcd60e51b815260206004820152603560248201527f4f6e6c7920746865206f776e6572206f7220616c6c6f7765642075736572732060448201527431b0b71030b1b1b2b9b9903237b1bab6b2b73a101760591b60648201526084015b60405180910390fd5b80600201805461023690610990565b80601f016020809104026020016040519081016040528092919081815260200182805461026290610990565b80156102af5780601f10610284576101008083540402835291602001916102af565b820191906000526020600020905b81548152906001019060200180831161029257829003601f168201915b5050505050915050919050565b6000546001600160a01b031633146102e65760405162461bcd60e51b815260040161021e906109ca565b60028054600091826102f783610a11565b91905055905061030881848461070c565b7fa27affd73e620d6edea4d8c6cb3e758783e547c2332422a234998f2cdab6e6fd8184604051610339929190610a38565b60405180910390a1505050565b6000546001600160a01b031633146103705760405162461bcd60e51b815260040161021e906109ca565b6000828152600160208190526040909120908101546001600160a01b03163314806103ac575033600090815260038201602052604090205460ff165b6104125760405162461bcd60e51b815260206004820152603160248201527f4f6e6c7920746865206f776e6572206f7220616c6c6f7765642075736572732060448201527031b0b71033b930b73a1030b1b1b2b9b99760791b606482015260840161021e565b6001600160a01b0382166000818152600383016020908152604091829020805460ff191660011790558151868152908101929092527fd91c50e8c21e68792869114f2a9f39ff547b09197b4d5ff27a57ac8055db53839101610339565b60016020526000908152604090208054819061048a90610990565b80601f01602080910402602001604051908101604052809291908181526020018280546104b690610990565b80156105035780601f106104d857610100808354040283529160200191610503565b820191906000526020600020905b8154815290600101906020018083116104e657829003601f168201915b505050600184015460028501805494956001600160a01b0390921694919350915061052d90610990565b80601f016020809104026020016040519081016040528092919081815260200182805461055990610990565b80156105a65780601f1061057b576101008083540402835291602001916105a6565b820191906000526020600020905b81548152906001019060200180831161058957829003601f168201915b5050505050905083565b6000828152600160209081526040808320905190916105d191839101610a59565b60405160208183030381529060405280519060200120836040516020016105f89190610acf565b604051602081830303815290604052805190602001201491505092915050565b6000546001600160a01b031633146106425760405162461bcd60e51b815260040161021e906109ca565b6000828152600160208190526040909120908101546001600160a01b031633148061067e575033600090815260038201602052604090205460ff165b6106e55760405162461bcd60e51b815260206004820152603260248201527f4f6e6c7920746865206f776e6572206f7220616c6c6f7765642075736572732060448201527131b0b7103932bb37b5b29030b1b1b2b9b99760711b606482015260840161021e565b6001600160a01b039091166000908152600390910160205260409020805460ff1916905550565b6000838152600160205260409020806107258482610b3a565b506001810180546001600160a01b03191633179055600281016107488382610b3a565b5050505050565b60006020828403121561076157600080fd5b5035919050565b60005b8381101561078357818101518382015260200161076b565b50506000910152565b600081518084526107a4816020860160208601610768565b601f01601f19169290920160200192915050565b6020815260006107cb602083018461078c565b9392505050565b634e487b7160e01b600052604160045260246000fd5b600082601f8301126107f957600080fd5b813567ffffffffffffffff80821115610814576108146107d2565b604051601f8301601f19908116603f0116810190828211818310171561083c5761083c6107d2565b8160405283815286602085880101111561085557600080fd5b836020870160208301376000602085830101528094505050505092915050565b6000806040838503121561088857600080fd5b823567ffffffffffffffff808211156108a057600080fd5b6108ac868387016107e8565b935060208501359150808211156108c257600080fd5b506108cf858286016107e8565b9150509250929050565b600080604083850312156108ec57600080fd5b8235915060208301356001600160a01b038116811461090a57600080fd5b809150509250929050565b606081526000610928606083018661078c565b6001600160a01b03851660208401528281036040840152610949818561078c565b9695505050505050565b6000806040838503121561096657600080fd5b82359150602083013567ffffffffffffffff81111561098457600080fd5b6108cf858286016107e8565b600181811c908216806109a457607f821691505b6020821081036109c457634e487b7160e01b600052602260045260246000fd5b50919050565b60208082526027908201527f4f6e6c7920746865206f776e65722063616e20706572666f726d20746869732060408201526630b1ba34b7b71760c91b606082015260800190565b600060018201610a3157634e487b7160e01b600052601160045260246000fd5b5060010190565b828152604060208201526000610a51604083018461078c565b949350505050565b6000808354610a6781610990565b60018281168015610a7f5760018114610a9457610ac3565b60ff1984168752821515830287019450610ac3565b8760005260208060002060005b85811015610aba5781548a820152908401908201610aa1565b50505082870194505b50929695505050505050565b60008251610ae1818460208701610768565b9190910192915050565b601f821115610b3557600081815260208120601f850160051c81016020861015610b125750805b601f850160051c820191505b81811015610b3157828155600101610b1e565b5050505b505050565b815167ffffffffffffffff811115610b5457610b546107d2565b610b6881610b628454610990565b84610aeb565b602080601f831160018114610b9d5760008415610b855750858301515b600019600386901b1c1916600185901b178555610b31565b600085815260208120601f198616915b82811015610bcc57888601518255948401946001909101908401610bad565b5085821015610bea5787850151600019600388901b60f8161c191681555b5050505050600190811b0190555056fea2646970667358221220c41286350878d5e761aa1384280818725db74ece077a94caa674e37a1ba5562364736f6c63430008140033",
    "linkReferences": {}
  },
  "methodIdentifiers": {
    "addDocument(string,string)": "4d2b1978",
    "documentCount()": "a5b16b2e",
    "documents(uint256)": "c2ed2b05",
    "grantAccess(uint256,address)": "65dd152c",
    "owner()": "8da5cb5b",
    "revokeAccess(uint256,address)": "d9a5ec1b",
    "verifyDocument(uint256,string)": "d40a2c5d",
    "viewDocument(uint256)": "18939b5e"
  },
  "id": 15
}